:020000040800F2
:1000000000500020991F0008291F00082F1F00081A
:10001000351F00083B1F0008411F000800000000BA
:10002000000000000000000000000000471F000862
:10003000531F0008000000005F1F00086B1F00082E
:10004000E11F0008E11F0008E11F0008E11F000890
:10005000E11F0008E11F0008E11F0008E11F000880
:10006000E11F0008E11F0008E11F0008E11F000870
:10007000E11F0008E11F0008E11F0008E11F000860
:10008000E11F0008E11F0008E11F0008E11F000850
:10009000E11F0008E11F0008E11F0008E11F000840
:1000A000E11F0008E11F0008E11F0008E11F000830
:1000B000791F0008E11F0008E11F0008E11F000888
:1000C000E11F0008E11F0008E11F0008E11F000810
:1000D000E11F0008E11F0008E11F0008E11F000800
:1000E000E11F0008E11F0008E11F000800000000F8
:1000F0000000000000000000000000000000000000
:0C01000000000000000000005FF808F1A3
:1001100010B5054C237833B9044B13B10448AFF341
:1001200000800123237010BD70000020000000003B
:10013000B449000808B5034B1BB103490348AFF3AA
:10014000008008BD0000000074000020B4490008D1
:1001500081F0004102E000BF83F0004330B54FEA78
:1001600041044FEA430594EA050F08BF90EA020FE5
:100170001FBF54EA000C55EA020C7FEA645C7FEA78
:10018000655C00F0E2804FEA5454D4EB5555B8BF9B
:100190006D420CDD2C4480EA020281EA030382EA0C
:1001A000000083EA010180EA020281EA0303362D9E
:1001B00088BF30BD11F0004F4FEA01314FF4801C71
:1001C0004CEA113102D0404261EB410113F0004F83
:1001D0004FEA03334CEA133302D0524263EB43033A
:1001E00094EA050F00F0A780A4F10104D5F1200ED8
:1001F0000DDB02FA0EFC22FA05F2801841F1000133
:1002000003FA0EF2801843FA05F359410EE0A5F106
:1002100020050EF1200E012A03FA0EFC28BF4CF037
:10022000020C43FA05F3C01851EBE37101F00045ED
:1002300007D54FF0000EDCF1000C7EEB00006EEBFA
:100240000101B1F5801F1BD3B1F5001F0CD3490884
:100250005FEA30004FEA3C0C04F101044FEA4452DB
:1002600012F5800F80F09A80BCF1004F08BF5FEA62
:10027000500C50F1000041EB045141EA050130BD42
:100280005FEA4C0C404141EB0101013C28BFB1F554
:10029000801FE9D291F0000F04BF01460020B1FA9F
:1002A00081F308BF2033A3F10B03B3F120020CDA72
:1002B0000C3208DD02F1140CC2F10C0201FA0CF050
:1002C00021FA02F10CE002F11402D8BFC2F1200CB5
:1002D00001FA02F120FA0CFCDCBF41EA0C0190406B
:1002E000E41AA2BF01EB0451294330BD6FEA0404B4
:1002F0001F3C1CDA0C340EDC04F11404C4F120029F
:1003000020FA04F001FA02F340EA030021FA04F3B0
:1003100045EA030130BDC4F10C04C4F1200220FA07
:1003200002F001FA04F340EA0300294630BD21FA45
:1003300004F0294630BD94F0000F83F4801306BF0B
:1003400081F480110134013D4EE77FEA645C18BFFF
:100350007FEA655C29D094EA050F08BF90EA020F96
:1003600005D054EA000C04BF1946104630BD91EA8E
:10037000030F1EBF0021002030BD5FEA545C05D191
:100380004000494128BF41F0004130BD14F58004D0
:100390003CBF01F5801130BD01F0004545F0FE4144
:1003A00041F470014FF0000030BD7FEA645C1ABF79
:1003B000194610467FEA655C1CBF0B46024650EAB0
:1003C000013406BF52EA033591EA030F41F40021DC
:1003D00030BD00BF90F0000F04BF0021704730B562
:1003E0004FF4806404F132044FF000054FF0000137
:1003F00050E700BF90F0000F04BF0021704730B5F8
:100400004FF4806404F1320410F0004548BF4042CC
:100410004FF000013EE700BF42004FEAE2014FEA21
:1004200031014FEA02701FBF12F07F4393F07F4FFC
:1004300081F06051704732F07F4208BF704793F0FF
:100440007F4F04BF41F40021704730B54FF4607412
:1004500001F0004521F000411CE700BF50EA010215
:1004600008BF704730B54FF000050AE050EA0102BE
:1004700008BF704730B511F0004502D5404261EB2E
:1004800041014FF4806404F132045FEA915C3FF46F
:10049000D8AE4FF003025FEADC0C18BF03325FEA0C
:1004A000DC0C18BF033202EBDC02C2F1200300FABD
:1004B00003FC20FA02F001FA03FE40EA0E0021FAE2
:1004C00002F11444BDE600BF70B54FF0FF0C4CF4D0
:1004D000E06C1CEA11541DBF1CEA135594EA0C0F82
:1004E00095EA0C0F00F0DEF82C4481EA030621EABD
:1004F0004C5123EA4C5350EA013518BF52EA0335F8
:1005000041F4801143F4801338D0A0FB02CE4FF0A9
:100510000005E1FB02E506F00042E0FB03E54FF0D9
:100520000006E1FB03569CF0000F18BF4EF0010ED1
:10053000A4F1FF04B6F5007F64F5407404D25FEACD
:100540004E0E6D4146EB060642EAC62141EA555180
:100550004FEAC52040EA5E504FEACE2EB4F1FD0CC2
:1005600088BFBCF5E06F1ED8BEF1004F08BF5FEA40
:10057000500E50F1000041EB045170BD06F00046F2
:1005800046EA010140EA020081EA0301B4EB5C049F
:10059000C2BFD4EB0C0541EA045170BD41F4801197
:1005A0004FF0000E013C00F3AB8014F1360FDEBFBC
:1005B000002001F0004170BDC4F10004203C35DA98
:1005C0000C341BDC04F11404C4F1200500FA05F31B
:1005D00020FA04F001FA05F240EA020001F00042BC
:1005E00021F0004110EBD37021FA04F642EB060132
:1005F0005EEA430E08BF20EAD37070BDC4F10C045C
:10060000C4F1200500FA04F320FA05F001FA04F21F
:1006100040EA020001F0004110EBD37041F100010B
:100620005EEA430E08BF20EAD37070BDC4F1200516
:1006300000FA05F24EEA020E20FA04F301FA05F27E
:1006400043EA020321FA04F001F0004121FA04F226
:1006500020EA020000EBD3705EEA430E08BF20EAF6
:10066000D37070BD94F0000F0FD101F00046400030
:1006700041EB010111F4801F08BF013CF7D041EAB2
:10068000060195F0000F18BF704703F000465200B6
:1006900043EB030313F4801F08BF013DF7D043EA87
:1006A0000603704794EA0C0F0CEA135518BF95EA3D
:1006B0000C0F0CD050EA410618BF52EA4306D1D1C4
:1006C00081EA030101F000414FF0000070BD50EAE3
:1006D000410606BF1046194652EA430619D094EA6D
:1006E0000C0F02D150EA013613D195EA0C0F05D157
:1006F00052EA03361CBF104619460AD181EA0301AB
:1007000001F0004141F0FE4141F470014FF0000062
:1007100070BD41F0FE4141F4780170BD70B54FF0FD
:10072000FF0C4CF4E06C1CEA11541DBF1CEA13557D
:1007300094EA0C0F95EA0C0F00F0A7F8A4EB05045F
:1007400081EA030E52EA03354FEA013100F0888056
:100750004FEA03334FF0805545EA131343EA12631F
:100760004FEA022245EA111545EA10654FEA0026D4
:100770000EF000419D4208BF964244F1FD0404F58D
:10078000407402D25B084FEA3202B61A65EB0305E9
:100790005B084FEA32024FF480104FF4002CB6EBA6
:1007A000020E75EB030E22BFB61A754640EA0C0026
:1007B0005B084FEA3202B6EB020E75EB030E22BF66
:1007C000B61A754640EA5C005B084FEA3202B6EBA7
:1007D000020E75EB030E22BFB61A754640EA9C0066
:1007E0005B084FEA3202B6EB020E75EB030E22BF36
:1007F000B61A754640EADC0055EA060E18D04FEAF4
:10080000051545EA16754FEA06164FEAC30343EA93
:1008100052734FEAC2025FEA1C1CC0D111F4801F60
:100820000BD141EA00014FF000004FF0004CB6E759
:1008300011F4801F04BF01430020B4F1FD0C88BFF8
:10084000BCF5E06F3FF6AFAEB5EB030C04BFB6EB03
:10085000020C5FEA500C50F1000041EB045170BDF6
:100860000EF0004E4EEA113114EB5C04C2BFD4EB23
:100870000C0541EA045170BD41F480114FF0000EA7
:10088000013C90E645EA060E8DE60CEA135594EA23
:100890000C0F08BF95EA0C0F3FF43BAF94EA0C0F26
:1008A0000AD150EA01347FF434AF95EA0C0F7FF49B
:1008B00025AF104619462CE795EA0C0F06D152EAEF
:1008C00003353FF4FDAE1046194622E750EA4106D3
:1008D00018BF52EA43067FF4C5AE50EA41047FF4E4
:1008E0000DAF52EA43057FF4EBAE12E74FF0FF3C49
:1008F00006E000BF4FF0010C02E000BF4FF0010C1A
:100900004DF804CD4FEA410C7FEA6C5C4FEA430C92
:1009100018BF7FEA6C5C1BD001B050EA410C0CBFE1
:1009200052EA430C91EA030F02BF90EA020F002043
:10093000704710F1000F91EA030F58BF994208BFAA
:1009400090422CBFD8176FEAE37040F00100704767
:100950004FEA410C7FEA6C5C02D150EA013C07D1BE
:100960004FEA430C7FEA6C5CD6D152EA033CD3D009
:100970005DF8040B704700BF8446104662468C4603
:100980001946634600E000BF01B5FFF7B7FF002836
:1009900048BF10F1000F01BD4DF808EDFFF7F4FF5F
:1009A0000CBF012000205DF808FB00BF4DF808EDEA
:1009B000FFF7EAFF34BF012000205DF808FB00BF0D
:1009C0004DF808EDFFF7E0FF94BF012000205DF82F
:1009D00008FB00BF4DF808EDFFF7CEFF94BF0120E4
:1009E00000205DF808FB00BF4DF808EDFFF7C4FFDD
:1009F00034BF012000205DF808FB00BF4FEA410C26
:100A00007FEA6C5C02D150EA013C0AD14FEA430C08
:100A10007FEA6C5C02D152EA033C02D14FF0000045
:100A200070474FF0010070474A0011D212F50012D2
:100A300011D20DD56FF47873B3EB62520ED44FEA36
:100A4000C12343F0004343EA505323FA02F07047B6
:100A50004FF00000704750EA013002D14FF0FF30F4
:100A600070474FF00000704780B582B000AF7860EB
:100A70001F4B1B68022B22D0022B30DC002B02D034
:100A8000012B0CD02BE0012201211A4801F0B5FD09
:100A9000786801F0EFF8164B01221A6024E0164B3B
:100AA0001B68012B1DD100220121124801F0A5FD78
:100AB000786801F0DFF80E4B02221A6011E00E4B4D
:100AC0001B68012B0FD1012201210A4801F095FD7D
:100AD000786801F0CFF8064B01221A6003E000BFEE
:100AE00002E000BF00E000BF00BF0837BD4680BD88
:100AF0008C000020000C01402C04002080B582B046
:100B000000AF00237B60BAE0614B1B68012B05D16D
:100B1000604B00221A60002001F020F85E4A7B68DA
:100B2000134419785D4A7B6813440A461A705C4A7C
:100B30007B6813441978584A7B6813440A461A7034
:100B40007868FFF757FC02460B464FF000004FF065
:100B5000804103F04BF84FF00002524BFFF7B4FC1A
:100B600002460B4610461946FFF75EFF03469BB24E
:100B700019464D4801F02AFD03461946484A7B684C
:100B800013440A461A70494A7B6813441B78012BA8
:100B900009D1474A7B68002142F82310454A7B6807
:100BA000002142F823103E4A7B6813441A783A49E0
:100BB0007B680B441B789A425ED1374A7B681344AA
:100BC0001A7836497B680B441B789A4254D1374ACD
:100BD0007B6813441A7831497B680B441B789A422E
:100BE00030D02E4A7B6813441978304A7B6813440E
:100BF0000A461A702D4A7B6813441B78002B3BD1A0
:100C00002D4A7B68012142F823102A4A7B684FF461
:100C1000967142F823101F4B1B68002B06D132201F
:100C200000F09CFF1B4B00221A6025E0234A7B68E2
:100C3000012142F82310174B00221A60002000F017
:100C40008DFF19E0194A7B6813441B78002B13D1E0
:100C5000184A7B6852F823305A1E16497B6841F8BF
:100C60002320144A7B6852F82330002B04DC104AFE
:100C70007B68012142F823107B6801337B607B682D
:100C8000032B7FF741AF00BF00BF0837BD4680BDD3
:100C9000F4030020E0000020980000209C000020C9
:100CA00094000020000070400008014090000020E7
:100CB000B0000020D0000020A0000020C0000020D4
:100CC00080B483B000AF00237B6007E0084A7B68F4
:100CD000134400221A707B6801337B607B68042B0D
:100CE000F4DD00BF00BF0C37BD4680BC704700BFBD
:100CF000E800002080B500AFA84B1B68082B00F26D
:100D0000298201A252F823F02D0D0008350E0008AB
:100D1000730D0008EB0E00083F0F0008B50F000828
:100D2000B510000853100008151100089C4800F089
:100D3000DEFD0346002B18D101220121994801F064
:100D40005CFC994B5B68012B40F00682964B0022BD
:100D50005A60934800F0E2FEFFF7B2FF8F4B022289
:100D60001A600A2000F05EFFF6E10A20FFF77CFE21
:100D7000F2E18E4B1B68012B04D10022012189482E
:100D800001F03BFC00224FF40051894801F035FC92
:100D9000854B9B68012B08D1FFF792FF824B002205
:100DA0009A607E4B01221A60D8E17F4BDB68012BF1
:100DB00003D17D4B0022DA60D0E17B4B5B68012BD5
:100DC0000CD1794B00225A60FFF77AFF4FF4FA708A
:100DD00000F0D8FE714B06221A60BFE1724B1B680F
:100DE000012B0CD1704B00221A60FFF769FF4FF402
:100DF000FA7000F0DBFE694B07221A60AEE168482A
:100E000000F075FD0346002B40F0A881012201216E
:100E1000644801F0F2FB0A2000F004FF604800F093
:100E20002FFE0346012B02D15C4B01221A60FFF713
:100E300047FF93E15D4B1B68012B04D10022012188
:100E4000584801F0DAFB01224FF40051584801F0F4
:100E5000D4FB554BDB68012B06D1534B0022DA60E3
:100E60004E4B02221A607BE14F4B9B68012B03D152
:100E70004D4B00229A6073E14B4B5B68012B03D111
:100E8000494B00225A606BE1474B1B68012B03D191
:100E9000454B00221A6063E1414800F028FD0346FB
:100EA000002B40F05D813E4800F0EAFD0346012B37
:100EB0000DD1FFF705FF394B02221A6001220121F3
:100EC000384801F09AFB0A2000F0ACFE48E1334BB1
:100ED00003221A60FFF7F4FE01220121314801F0DC
:100EE0008CFB0A2000F09EFE3AE1304B1B68012B80
:100EF00004D1002201212B4801F07FFB284800F09B
:100F0000F6FC0346002B40F02D81254800F0B8FD8B
:100F10000346012B05D1FFF7D3FE204B02221A60B6
:100F200020E1FFF7CDFE1D4B04221A6001220121B2
:100F30001C4801F062FB0A2000F074FE12E11B4B1A
:100F40001B68012B04D100220121164801F055FB3A
:100F5000134800F0CCFC0346002B40F00581012231
:100F60000121104801F049FB0A2000F05BFE0C480B
:100F700000F086FD0346012B05D1FFF7A1FE074BCC
:100F800002221A60F0E0FFF79BFE044B05221A6074
:100F90004FF4FA7000F05AFEE6E000BFE4000020D3
:100FA000E8000020000C0140A00000201C040020EC
:100FB000001001406F4B1B68012B04D1002201215E
:100FC0006D4801F01AFB01224FF480516B4801F08B
:100FD00014FB6B4800F08BFC0346002B25D101224B
:100FE0000121654801F009FB0A2000F01BFE64485E
:100FF00000F046FD0346012B0ED1FFF761FE614B69
:1010000002221A6000224FF480515C4801F0F5FA88
:10101000002000F01BFE08E05A4B05221A60FFF783
:101020004FFE4FF4FA7000F011FE574B1B68012B76
:1010300040F09C80544B00221A60524B04221A60EC
:10104000FFF73EFE00224FF480514C4801F0D5FAE4
:101050008CE04E4B1B68012B06D14A4B02221A60D2
:10106000002000F0A3FD82E0454800F040FC03466C
:10107000002B1BD1002201213F4801F0BEFA40485D
:1010800000F05CFD0346012B07D100F03FFD3D4B16
:1010900002221A60FFF714FE69E0002000F086FDCE
:1010A000FFF70EFE374B02221A6060E00A20FFF7BE
:1010B000DBFC5CE0364B1B68012B03D1314B022279
:1010C0001A6054E02E4800F012FC0346002B1DD19C
:1010D0002B4800F033FD0346012B0ED1294B08228B
:1010E0001A6041F2883000F075FDFFF7E9FD01223A
:1010F0000121214801F081FA39E0002000F042FD91
:10110000FFF7DEFD1F4B02221A6030E00A20FFF7D6
:10111000ABFC2CE01F4B1B68012B08D1194B0222A2
:101120001A6000220121144801F067FA12E0144805
:1011300000F0DDFB0346002B0CD1114800F0DAFC77
:10114000104B02221A60FFF7BBFD002201210A4862
:1011500001F053FA00BF0AE000BF08E000BF06E05C
:1011600000BF04E000BF02E000BF00E000BF00BF1E
:1011700080BD00BF1C040020000C0140000801409D
:10118000E8000020E40000202404002004040020E3
:10119000FC0300200C04002080B586B002AF03469B
:1011A000FB7107F10F02F91D4FF0FF33009301238C
:1011B000034801F0A7FEFB7B18461037BD4680BDF3
:1011C000F000002080B582B000AF03460A46FB71F4
:1011D0001346BB710E4BDB680D4A23F00803D36046
:1011E000FB795B00DBB203F07E03DBB21846FFF74E
:1011F000D3FFBB791846FFF7CFFF054BDB68044AE6
:1012000043F00803D36000BF0837BD4680BD00BF70
:101210000008014080B584B000AF0346FB71124B5B
:10122000DB68114A23F00803D360FB795B005BB2F3
:1012300003F07E035BB263F07F035BB2DBB2184660
:10124000FFF7AAFF0020FFF7A7FF0346FB60064B4E
:10125000DB68054A43F00803D360FB68DBB218463D
:101260001037BD4680BD00BF0008014080B500AF0B
:101270000F210120FFF7A6FF00BF80BD80B500AFA2
:10128000FFF7F4FF8D212A20FFF79CFF3E212B2042
:10129000FFF798FF1E212D20FFF794FF00212C203F
:1012A000FFF790FF40211520FFF78CFF3D21112013
:1012B000FFF788FF00F002F800BF80BD80B500AFE7
:1012C0000321142000F002F800BF80BD80B584B077
:1012D00000AF03460A46FB711346BB71FB79184603
:1012E000FFF798FF0346FB73FA7BBB791343DAB22F
:1012F000FB7911461846FFF765FF00BF1037BD4662
:1013000080BD80B586B002AF03463960FB7107210E
:101310000D20FFF757FF3B68FA791A7007F10803B1
:1013200000933B68012239680C2000F00FF8034657
:10133000FB73FB7B002B02D1BB68102B01D0022377
:10134000FB73FB7B18461037BD4680BD90B589B056
:1013500000AFB9607B600346FB731346BB73022387
:10136000FB770023BB7700237B77FB7B0C2B06D01E
:101370000E2B09D11223BB7710237B7705E077234F
:10138000BB7730237B7700E000BFBB7F63F07F0338
:10139000DBB219460220FFF715FF8021042000F080
:1013A0009EF880210A20FFF791FF00210120FFF71E
:1013B00009FF0023BB610AE0BA68BB6913441B78CC
:1013C00019460920FFF7FEFEBB690133BB61BB7BF9
:1013D000BA699A42F0D3FB7B19460120FFF7F2FE6F
:1013E000FB7B0C2B03D180210D20FFF76FFF4FF407
:1013F000FA63BB610420FFF70DFF03463B77BB692F
:10140000013BBB61BB69002B0AD03B7F03F00103AA
:10141000002B05D13A7F7B7F1340DBB2002BE9D054
:1014200080210D2000F05BF8BB69002B52D0062014
:10143000FFF7F0FE034603F01B03002B48D1002307
:10144000FB773A7FBB7F1340DBB203F00103002B35
:1014500001D00123FB77FB7B0C2B3BD10A20FFF74C
:10146000D9FE03463B770C20FFF7D4FE034603F07A
:101470000703FB75FB7D002B08D03B7F013BDA00A7
:10148000FB7D13441A463B6B1A6004E03B7FDB0094
:101490001A463B6B1A603B7F002B01D101233B773F
:1014A0003B7F102B01D910233B770023BB610AE05F
:1014B0007A68BB69D4180920FFF7ACFE0346237095
:1014C000BB690133BB613B7FBA699A42F0D301E04B
:1014D0000223FB77FB7F18462437BD4690BD80B5BD
:1014E00084B000AF03460A46FB711346BB71FB791B
:1014F0001846FFF78FFE0346FB7397F90630DB4370
:101500005AB297F90F3013405BB2DAB2FB79114649
:101510001846FFF757FE00BF1037BD4680BD80B5A7
:1015200086B002AF786000237B7300210D20FFF7A7
:1015300049FE7B6893221A707B68013320221A705F
:1015400007F1080300937B68022279680C20FFF7FB
:10155000FDFE0346FB73FB7B002B18D10023BB73FE
:1015600009E0BB7B7A6813441A787B7B53407B731A
:10157000BB7B0133BB73BB7B032BF2D9BB7B7A688C
:1015800013441B787A7B9A4201D00223FB73FB7BC6
:1015900018461037BD4680BD80B582B000AF00F060
:1015A00021FD00F037F800F0F3F800F06FF800F0DC
:1015B000A3F800F07DF9FFF761FE134801F03AFF50
:1015C000FFF77EFB642000F019FB104B1B68012B1A
:1015D00016D13B4619462620FFF793FE0346002B03
:1015E0000ED13B461846FFF79AFF0346002B07D162
:1015F0003B461946064800F0B5F9642000F0FEFAB3
:10160000FFF778FBE1E700BF480100201404002049
:10161000E800002080B590B000AF07F11803282241
:101620000021184602F0DAFA3B1D00221A605A60C7
:101630009A60DA601A610223BB610123BB62102346
:10164000FB6200237B6307F11803184600F0EEFFEE
:101650000346002B01D000F045F90F237B600023E7
:10166000BB600023FB6000233B6100237B613B1DCB
:101670000021184601F05CFA0346002B01D000F06F
:1016800031F900BF4037BD4680BD000080B500AFD6
:10169000174B184A1A60164B4FF482725A60144B5B
:1016A00000229A60124B0022DA60114B00221A616C
:1016B0000F4B00225A610E4B4FF400729A610C4B93
:1016C0000022DA610A4B00221A62094B00225A6298
:1016D000074B00229A62064B0A22DA62044801F0A4
:1016E0008DFB0346002B01D000F0FCF800BF80BD4D
:1016F000F00000200030014080B586B000AF07F157
:10170000080300221A605A609A60DA603B460022A1
:101710001A605A601D4B4FF080421A601B4B41F615
:101720003F725A60194B00229A60184B0922DA6006
:10173000164B00221A61154B00229A61134801F0E2
:1017400029FE0346002B01D000F0CCF84FF4805363
:10175000BB6007F1080319460C4801F0C5FF0346BA
:10176000002B01D000F0BEF800233B6000237B601B
:101770003B461946054802F097F90346002B01D075
:1017800000F0B0F800BF1837BD4680BD480100200A
:1017900080B588B000AF07F1100300221A605A60CC
:1017A0009A60DA603E4B9B693D4A43F010039361B7
:1017B0003B4B9B6903F01003FB60FB68384B9B6954
:1017C000374A43F020039361354B9B6903F02003B4
:1017D000BB60BB68324B9B69314A43F004039361A1
:1017E0002F4B9B6903F004037B607B682C4B9B6948
:1017F0002B4A43F008039361294B9B6903F00803CC
:101800003B603B6800224FF40051264800F0F5FE93
:10181000002241F21801244800F0EFFE00220121CD
:10182000224800F0EAFE4FF400533B6101237B6144
:101830000023BB610223FB6107F11003194619481D
:1018400000F040FD41F218033B6101237B6100235E
:10185000BB610223FB6107F110031946124800F037
:1018600031FD01233B6101237B610023BB61022326
:10187000FB6107F1100319460C4800F023FD4FF4FB
:1018800070633B6100237B610123BB6107F110039F
:101890001946054800F016FD00BF2037BD4680BD43
:1018A000001002400010014000080140000C0140FF
:1018B00080B400AF044BDB68034A43F00803D360F5
:1018C00000BFBD4680BC70470008014080B582B0B3
:1018D00000AF786000F0E2F9FFF710F900BF0837B9
:1018E000BD4680BD80B400AF72B600BFFEE780B4D5
:1018F00085B000AF78600023FB730AE0FB7B7A6859
:1019000013441B78002B01D0002306E0FB7B01333E
:10191000FB73FB7B042BF1D9012318461437BD461A
:1019200080BC704780B485B000AF78603960002318
:10193000FB730EE0FB7B7A6813441A78FB7B3968F3
:101940000B441B789A4201D0002306E0FB7B013355
:10195000FB73FB7B042BEDD9012318461437BD46DE
:1019600080BC704780B485B000AF786039600023D8
:10197000FB730AE0FB7B3A681A44FB7B79680B44F3
:1019800012781A70FB7B0133FB73FB7B042BF1D9BC
:1019900000BF00BF1437BD4680BC704790B484B010
:1019A00000AF7860224B1B68632B3CDC204B1B682C
:1019B00001331F4A13600023FB6030E01D49FA68C1
:1019C00013465B0013445B000B4405331B78002B6C
:1019D00022D11849FA6813465B0013445B000B449C
:1019E000053301221A700023FB7211E0FB7A7A683A
:1019F0001344F97A1C780F48FA6813465B001344C5
:101A00005B0003440B4422461A70FB7A0133FB72DD
:101A1000FB7A042BEAD907E0FB680133FB60FB6823
:101A2000632BCBDD00E000BF1037BD4690BC704794
:101A3000F00300209801002080B483B000AF0E4B6B
:101A400000221A6000237B600CE00C497A68134680
:101A50005B0013445B000B44053300221A707B6863
:101A600001337B607B68632BEFDD00BF00BF0C3769
:101A7000BD4680BC704700BFF003002098010020E5
:101A800080B584B000AF786079681848FFF74AFFE6
:101A90000346002B01D0012324E00023FB601DE05E
:101AA000FA6813465B0013445B00114A13447968DB
:101AB0001846FFF737FF0346002B0CD00C49FA6895
:101AC00013465B0013445B000B4405331B78012B6A
:101AD00001D1012306E0FB680133FB60FB68632B47
:101AE000DEDD002318461037BD4680BD9001002082
:101AF0009801002080B582B000AF78607868FFF769
:101B00004DFF012318460837BD4680BD80B500AFA4
:101B1000FFF792FF0123184680BD000080B582B018
:101B200000AF786079680448FFF71CFF012318466E
:101B30000837BD4680BD00BF9001002080B582B04F
:101B400000AF786004497868FFF7ECFE034618465A
:101B50000837BD4680BD00BF9001002080B483B02F
:101B600000AF7860054A7B681360054B00221A605D
:101B700000BF0C37BD4680BC704700BFF803002093
:101B8000F403002080B483B000AF7860054A7B681E
:101B90001360054B00221A6000BF0C37BD4680BCA5
:101BA000704700BF00040020FC03002080B483B015
:101BB00000AF7860054A7B681360054B00221A600D
:101BC00000BF0C37BD4680BC704700BF0804002032
:101BD0000404002080B483B000AF7860054A7B68BD
:101BE0001360054B00221A6000BF0C37BD4680BC55
:101BF000704700BF100400200C04002080B483B0A4
:101C000000AF7860054A7B681360054B00221A60BC
:101C100000BF0C37BD4680BC704700BF18040020D1
:101C20001404002080B483B000AF7860054A7B685C
:101C30001360054B00221A6000BF0C37BD4680BC04
:101C4000704700BF200400201C04002080B483B033
:101C500000AF7860054A7B681360054B00221A606C
:101C600000BF0C37BD4680BC704700BF2804002071
:101C70002404002080B483B000AF7860054A7B68FC
:101C80001360054B00221A6000BF0C37BD4680BCB4
:101C9000704700BF300400202C04002080B400AF47
:101CA000414B1B68002B0BDD3F4B1B68013B3E4A41
:101CB00013603D4B1B68002B02DC3C4B01221A6079
:101CC0003B4B1B68002B0BDD394B1B68013B384A33
:101CD0001360374B1B68002B02DC364B01221A6065
:101CE000354B1B68002B0BDD334B1B68013B324A25
:101CF0001360314B1B68002B02DC304B01221A6051
:101D00002F4B1B68002B0BDD2D4B1B68013B2C4A16
:101D100013602B4B1B68002B02DC2A4B01221A603C
:101D2000294B1B68002B0BDD274B1B68013B264A08
:101D30001360254B1B68002B02DC244B01221A6028
:101D4000234B1B68002B0BDD214B1B68013B204AFA
:101D500013601F4B1B68002B02DC1E4B01221A6014
:101D60001D4B1B68002B0BDD1B4B1B68013B1A4AEC
:101D70001360194B1B68002B02DC184B01221A6000
:101D8000174B1B68002B0BDD154B1B68013B144ADE
:101D90001360134B1B68002B02DC124B01221A60EC
:101DA00000BFBD4680BC7047F8030020F40300204C
:101DB00000040020FC03002008040020040400208C
:101DC000100400200C04002018040020140400203B
:101DD000200400201C0400202804002024040020EB
:101DE000300400202C04002080B485B000AF154BD7
:101DF0009B69144A43F001039361124B9B6903F002
:101E00000103BB60BB680F4BDB690E4A43F0805394
:101E1000D3610C4BDB6903F080537B607B680A4B1A
:101E20005B68FB60FB6823F0E063FB60FB6843F0EA
:101E30000073FB60044AFB68536000BF1437BD4663
:101E400080BC7047001002400000014080B588B09F
:101E500000AF786007F1100300221A605A609A60A0
:101E6000DA607B681B681B4A93422FD11A4B9B692F
:101E7000194A43F480539361174B9B6903F48053D1
:101E8000FB60FB68144B9B69134A43F004039361A6
:101E9000114B9B6903F00403BB60BB68A0233B614B
:101EA00002237B610323FB6107F1100319460B48F2
:101EB00000F008FA40233B6100237B610023BB61F3
:101EC00007F110031946054800F0FCF900BF203760
:101ED000BD4680BD003001400010024000080140B6
:101EE00080B584B000AF78607B681B68B3F1804F29
:101EF00013D10C4BDB690B4A43F00103D361094B4F
:101F0000DB6903F00103FB60FB68002200211C2059
:101F100000F0A1F91C2000F0BAF900BF1037BD464F
:101F200080BD00BF0010024080B400AFFEE780B467
:101F300000AFFEE780B400AFFEE780B400AFFEE77D
:101F400080B400AFFEE780B400AF00BFBD4680BCE8
:101F5000704780B400AF00BFBD4680BC704780B4FE
:101F600000AF00BFBD4680BC704780B500AF00F039
:101F70007FF800BF80BD000080B500AF024801F0CF
:101F8000ABFA00BF80BD00BF4801002080B400AFA5
:101F900000BFBD4680BC70470C480D490D4A002368
:101FA00002E0D458C4500433C4188C42F9D30A4A0E
:101FB0000A4C002301E013600432A242FBD3FFF776
:101FC000E5FF01F0E7FDFFF7E7FA704700000020AA
:101FD00070000020284A000870000020380400200B
:101FE000FEE7000080B500AF084B1B68074A43F0CE
:101FF00010031360032000F023F90F2000F008F80D
:10200000FFF7F2FE0023184680BD00BF002002400B
:1020100080B582B000AF7860124B1A68124B1B7803
:1020200019464FF47A73B3FBF1F3B2FBF3F318469E
:1020300000F03BF90346002B01D001230EE07B6842
:102040000F2B0AD8002279684FF0FF3000F003F917
:10205000064A7B681360002300E001231846083716
:10206000BD4680BD000000200800002004000020C4
:1020700080B400AF054B1B781A46054B1B68134410
:10208000034A136000BFBD4680BC704708000020B3
:102090003404002080B400AF024B1B681846BD46D4
:1020A00080BC70473404002080B485B000AF7860F5
:1020B0007B6803F00703FB600C4BDB68BB60BA680E
:1020C0004FF6FF031340BB60FB681A02BB68134363
:1020D00043F0BF6343F40033BB60044ABB68D36082
:1020E00000BF1437BD4680BC704700BF00ED00E064
:1020F00080B400AF044BDB681B0A03F007031846EB
:10210000BD4680BC704700BF00ED00E080B483B0E6
:1021100000AF0346FB7197F90730002B0BDBFB790F
:1021200003F01F02064997F907305B09012000FA06
:1021300002F241F8232000BF0C37BD4680BC704737
:1021400000E100E080B483B000AF03463960FB716A
:1021500097F90730002B0ADB3B68DAB20C4997F994
:1021600007301201D2B20B4483F800230AE03B6827
:10217000DAB20849FB7903F00F03043B1201D2B233
:102180000B441A7600BF0C37BD4680BC704700BFB9
:1021900000E100E000ED00E080B489B000AFF8603D
:1021A000B9607A60FB6803F00703FB61FB69C3F168
:1021B0000703042B28BF0423BB61FB690433062BF0
:1021C00002D9FB69033B00E000237B614FF0FF3243
:1021D000BB6902FA03F3DA43BB681A407B699A4091
:1021E0004FF0FF317B6901FA03F3D9437B680B4061
:1021F000134318462437BD4680BC704780B582B073
:1022000000AF78607B68013BB3F1807F01D301238D
:102210000FE00A4A7B68013B53600F214FF0FF300B
:10222000FFF790FF054B00229A60044B07221A60CB
:10223000002318460837BD4680BD00BF10E000E00F
:1022400080B582B000AF78607868FFF72DFF00BFDF
:102250000837BD4680BD80B586B000AF0346B96083
:102260007A60FB7300237B61FFF742FF78617A6835
:10227000B9687869FFF790FF024697F90F30114669
:102280001846FFF75FFF00BF1837BD4680BD80B519
:1022900082B000AF0346FB7197F907301846FFF78D
:1022A00035FF00BF0837BD4680BD80B582B000AFA6
:1022B00078607868FFF7A2FF034618460837BD46E6
:1022C00080BD000080B48BB000AF7860396000231F
:1022D0007B6200233B6269E101227B6A02FA03F31D
:1022E000FB613B681B68FA691340BB61BA69FB6913
:1022F0009A4240F058813B685B689A4A93425ED0AC
:10230000984A934275D8984A934258D0964A934235
:102310006FD8964A934252D0944A934269D8944ACD
:1023200093424CD0924A934263D8924A934246D009
:10233000904A93425DD8122B2AD8122B59D801A269
:1023400052F823F0BF23000899230008AB230008AC
:10235000ED230008F3230008F3230008F32300080B
:10236000F3230008F3230008F3230008F3230008F5
:10237000F3230008F3230008F3230008F3230008E5
:10238000F3230008F3230008A1230008B523000865
:10239000794A934213D02CE03B68DB683B6229E02A
:1023A0003B68DB6804333B6224E03B68DB6808334E
:1023B0003B621FE03B68DB680C333B621AE03B6822
:1023C0009B68002B02D104233B6213E03B689B68AF
:1023D000012B05D108233B627B68FA691A6109E089
:1023E00008233B627B68FA695A6103E000233B6281
:1023F00000E000BFBB69FF2B01D87B6801E07B6870
:1024000004337B61BB69FF2B02D87B6A9B0002E02F
:102410007B6A083B9B003B617B691A680F213B6923
:1024200001FA03F3DB431A40396A3B6901FA03F30B
:102430001A437B691A603B685B6803F08053002B8A
:1024400000F0B1804D4B9B694C4A43F0010393610E
:102450004A4B9B6903F00103BB60BB68484A7B6A37
:102460009B08023352F82330FB607B6A03F00303BE
:102470009B000F2202FA03F3DB43FA681340FB6070
:102480007B68404A934213D07B683F4A93420DD009
:102490007B683E4A934207D07B683D4A934201D114
:1024A000032306E0042304E0022302E0012300E00A
:1024B00000237A6A02F0030292009340FA68134301
:1024C000FB602F497B6A9B080233FA6841F823209E
:1024D0003B685B6803F48033002B06D02D4B1A68F1
:1024E0002C49BB6913430B6006E02A4B1A68BB6991
:1024F000DB43284913400B603B685B6803F40033FF
:10250000002B06D0234B5A682249BB6913434B600A
:1025100006E0204B5A68BB69DB431E4913404B6001
:102520003B685B6803F48013002B06D0194B9A6854
:102530001849BB6913438B6006E0164B9A68BB6968
:10254000DB43144913408B603B685B6803F4001362
:10255000002B21D00F4BDA680E49BB691343CB60C7
:1025600021E000BF000032100000311000002210F6
:102570000000211000001210000011100010024095
:102580000000014000080140000C01400010014023
:1025900000140140000401400B4BDA68BB69DB43C7
:1025A00009491340CB607B6A01337B623B681A6840
:1025B0007B6A22FA03F3002B7FF48EAE00BF00BFCC
:1025C0002C37BD4680BC70470004014080B485B004
:1025D00000AF78600B467B807B689A687B881340ED
:1025E000002B02D00123FB7301E00023FB73FB7B74
:1025F00018461437BD4680BC704780B483B000AF26
:1026000078600B467B8013467B707B78002B03D071
:102610007A887B681A6103E07B881A047B681A61F8
:1026200000BF0C37BD4680BC7047000080B586B047
:1026300000AF78607B68002B01D1012372E27B68D8
:102640001B6803F00103002B00F08780924B5B684E
:1026500003F00C03042B0CD08F4B5B6803F00C03CE
:10266000082B12D18C4B5B6803F48033B3F5803FA9
:102670000BD1894B1B6803F40033002B6CD07B68B3
:102680005B68002B68D101234CE27B685B68B3F583
:10269000803F06D1804B1B687F4A43F48033136030
:1026A0002EE07B685B68002B0CD17B4B1B687A4A61
:1026B00023F480331360784B1B68774A23F480231C
:1026C00013601DE07B685B68B3F5A02F0CD1724BE3
:1026D0001B68714A43F4802313606F4B1B686E4A7A
:1026E00043F4803313600BE06B4B1B686A4A23F49E
:1026F00080331360684B1B68674A23F480231360A0
:102700007B685B68002B13D0FFF7C4FC386108E0DE
:10271000FFF7C0FC02463B69D31A642B01D903239F
:1027200000E25D4B1B6803F40033002BF0D014E093
:10273000FFF7B0FC386108E0FFF7ACFC02463B69EC
:10274000D31A642B01D90323ECE1534B1B6803F428
:102750000033002BF0D100E000BF7B681B6803F062
:102760000203002B63D04C4B5B6803F00C03002B7F
:102770000BD0494B5B6803F00C03082B1CD1464B74
:102780005B6803F48033002B16D1434B1B6803F0C6
:102790000203002B05D07B681B69012B01D00123AC
:1027A000C0E13D4B1B6823F0F8027B685B69DB00EE
:1027B000394913430B603AE07B681B69002B20D03A
:1027C000364B01221A60FFF765FC386108E0FFF71D
:1027D00061FC02463B69D31A022B01D90323A1E114
:1027E0002D4B1B6803F00203002BF0D02A4B1B6813
:1027F00023F0F8027B685B69DB00274913430B6019
:1028000015E0264B00221A60FFF744FC386108E00F
:10281000FFF740FC02463B69D31A022B01D9032380
:1028200080E11D4B1B6803F00203002BF0D17B6895
:102830001B6803F00803002B3AD07B689B69002BD0
:1028400019D0174B01221A60FFF724FC386108E009
:10285000FFF720FC02463B69D31A022B01D9032360
:1028600060E10D4B5B6A03F00203002BF0D0012006
:1028700000F0A6FA1CE00A4B00221A60FFF70AFCDF
:1028800038610FE0FFF706FC02463B69D31A022BC2
:1028900008D9032346E100BF001002400000424275
:1028A00080044242924B5B6A03F00203002BE9D1A1
:1028B0007B681B6803F00403002B00F0A680002354
:1028C000FB758B4BDB6903F08053002B0DD1884BDC
:1028D000DB69874A43F08053D361854BDB6903F0A2
:1028E0008053BB60BB680123FB75824B1B6803F4FC
:1028F0008073002B18D17F4B1B687E4A43F4807392
:102900001360FFF7C7FB386108E0FFF7C3FB02461F
:102910003B69D31A642B01D9032303E1754B1B6870
:1029200003F48073002BF0D07B68DB68012B06D1A9
:102930006F4B1B6A6E4A43F0010313622DE07B6804
:10294000DB68002B0CD16A4B1B6A694A23F0010338
:102950001362674B1B6A664A23F0040313621CE090
:102960007B68DB68052B0CD1614B1B6A604A43F026
:10297000040313625E4B1B6A5D4A43F0010313625A
:102980000BE05B4B1B6A5A4A23F001031362584B5E
:102990001B6A574A23F0040313627B68DB68002B31
:1029A00015D0FFF777FB38610AE0FFF773FB0246AB
:1029B0003B69D31A41F28832934201D90323B1E033
:1029C0004B4B1B6A03F00203002BEED014E0FFF721
:1029D00061FB38610AE0FFF75DFB02463B69D31AF1
:1029E00041F28832934201D903239BE0404B1B6A9A
:1029F00003F00203002BEED1FB7D012B05D13C4BF4
:102A0000DB693B4A23F08053D3617B68DB69002B91
:102A100000F08780364B5B6803F00C03082B61D015
:102A20007B68DB69022B46D1334B00221A60FFF72B
:102A300031FB386108E0FFF72DFB02463B69D31AF2
:102A4000022B01D903236DE0294B1B6803F00073AF
:102A5000002BF0D17B681B6AB3F5803F08D1244B73
:102A60005B6823F400327B689B68214913434B6009
:102A70001F4B5B6823F474127B68196A7B685B6A7E
:102A80000B431B4913434B601B4B01221A60FFF79A
:102A900001FB386108E0FFF7FDFA02463B69D31AF3
:102AA000022B01D903233DE0114B1B6803F0007397
:102AB000002BF0D035E0104B00221A60FFF7EAFA45
:102AC000386108E0FFF7E6FA02463B69D31A022BA9
:102AD00001D9032326E0064B1B6803F00073002B8B
:102AE000F0D11EE07B68DB69012B07D1012319E0DF
:102AF0000010024000700040600042420B4B5B68D7
:102B0000FB60FB6803F480327B681B6A9A4206D143
:102B1000FB6803F470127B685B6A9A4201D0012360
:102B200000E0002318461837BD4680BD0010024063
:102B300080B584B000AF786039607B68002B01D12C
:102B40000123D0E06A4B1B6803F007033A689A42FE
:102B500010D9674B1B6823F0070265493B68134394
:102B60000B60634B1B6803F007033A689A4201D07D
:102B70000123B8E07B681B6803F00203002B20D020
:102B80007B681B6803F00403002B05D0594B5B687E
:102B9000584A43F4E06353607B681B6803F0080302
:102BA000002B05D0534B5B68524A43F4605353608B
:102BB000504B5B6823F0F0027B689B684D491343E0
:102BC0004B607B681B6803F00103002B40D07B68DF
:102BD0005B68012B07D1474B1B6803F40033002BC4
:102BE00015D101237FE07B685B68022B07D1414B45
:102BF0001B6803F00073002B09D1012373E03D4BE8
:102C00001B6803F00203002B01D101236BE0394B59
:102C10005B6823F003027B685B68364913434B60B3
:102C2000FFF738FAF8600AE0FFF734FA0246FB686B
:102C3000D31A41F28832934201D9032353E02D4B3A
:102C40005B6803F00C027B685B689B009A42EBD1E7
:102C5000274B1B6803F007033A689A4210D2244BB3
:102C60001B6823F0070222493B6813430B60204B8B
:102C70001B6803F007033A689A4201D0012332E04F
:102C80007B681B6803F00403002B08D0194B5B68BA
:102C900023F4E0627B68DB68164913434B607B6872
:102CA0001B6803F00803002B09D0124B5B6823F468
:102CB00060527B681B69DB000E4913434B6000F0D8
:102CC00021F802460B4B5B681B0903F00F030A490E
:102CD000CB5C22FA03F3094A1360094B1B681846C0
:102CE000FFF796F9002318461037BD4680BD00BF98
:102CF0000020024000100240E049000800000020CF
:102D00000400002090B48AB000AF294B3C1D0FCBCB
:102D100084E80F0040F201233B800023FB61002385
:102D2000BB6100237B6200237B6100233B62214B5C
:102D30005B68FB61FB6903F00C03042B02D0082BDA
:102D400003D02BE01C4B3B622BE0FB699B0C03F098
:102D50000F0328333B4413F8243C7B61FB6903F4E5
:102D60008033002B12D0134B5B685B0C03F0010324
:102D700028333B4413F8283CBB617B690E4A03FBB4
:102D800002F2BB69B2FBF3F37B6204E07B690B4A9E
:102D900002FB03F37B627B6A3B6202E0064B3B6211
:102DA00000BF3B6A18462837BD4690BC704700BF3D
:102DB000D04900080010024000127A0000093D00CE
:102DC00080B485B000AF78600A4B1B680A4AA2FB4A
:102DD00003235B0A7A6802FB03F3FB6000BFFB6816
:102DE0005A1EFA60002BF9D100BF00BF1437BD4650
:102DF00080BC704700000020D34D621080B582B0C7
:102E000000AF78607B68002B01D1012376E07B68FE
:102E10005B6A002B08D17B685B68B3F5827F09D0C1
:102E20007B680022DA6105E07B6800221A617B681A
:102E300000225A617B6800229A627B6893F85130C5
:102E4000DBB2002B06D17B68002283F85020786823
:102E5000FEF7FCFF7B68022283F851207B681B6829
:102E60001A687B681B6822F040021A607B685B6806
:102E700003F482727B689B6803F404431A437B6803
:102E8000DB6803F400631A437B681B6903F00203E9
:102E90001A437B685B6903F001031A437B689B69F3
:102EA00003F400731A437B68DB6903F038031A43A9
:102EB0007B681B6A03F0800342EA03017B689B6A1C
:102EC00003F400527B681B680A431A607B689B69A5
:102ED0001A0C7B681B6802F004025A607B681B684E
:102EE000DA697B681B6822F40062DA617B68002281
:102EF0005A657B68012283F8512000231846083761
:102F0000BD4680BD80B58CB000AFF860B9607A6016
:102F10007B800123FB62002387F82B30FB6893F84A
:102F20005030012B01D102238AE1FB68012283F892
:102F30005020FFF7AFF87862FB6893F8513087F8BC
:102F40002330FB685B68FB617B887B8397F82330C9
:102F5000012B0FD0FB69B3F5827F07D1FB689B681B
:102F6000002B03D197F82330042B03D0022387F8DA
:102F70002B305BE1BB68002B05D07B68002B02D0B7
:102F80007B88002B03D1012387F82B304EE1FB68AF
:102F900093F85130DBB2042B03D0FB68052283F891
:102FA0005120FB6800225A65FB687A689A63FB68C7
:102FB0007A88DA87FB687A889A87FB68BA681A6326
:102FC000FB687A88DA86FB687A889A86FB68002232
:102FD0001A64FB6800225A64FB681B681B6803F0D4
:102FE0004003402B07D0FB681B681A68FB681B680E
:102FF00042F040021A60FB68DB68B3F5006F78D1DD
:10300000FB685B68002B02D07B8B012B66D1FB68D1
:103010001B6B1A88FB681B68DA60FB681B6B9A1CC9
:10302000FB681A63FB68DB8E9BB2013B9AB2FB68BC
:10303000DA8653E0FB681B689B6803F00203022BEF
:103040001BD1FB68DB8E9BB2002B16D0FB6A012BD9
:1030500013D1FB681B6B1A88FB681B68DA60FB687E
:103060001B6B9A1CFB681A63FB68DB8E9BB2013BEF
:103070009AB2FB68DA860023FB62FB681B689B68D8
:1030800003F00103012B19D1FB68DB8F9BB2002BEE
:1030900014D0FB681B68DA68FB689B6B92B21A80DD
:1030A000FB689B6B9A1CFB689A63FB68DB8F9BB287
:1030B000013B9AB2FB68DA870123FB62FEF7EAFF65
:1030C00002467B6AD31ABA6B9A4207D8BB6BB3F13C
:1030D000FF3F03D0032387F82B30A7E0FB68DB8E8C
:1030E0009BB2002BA6D1FB68DB8F9BB2002BA1D13A
:1030F0007CE0FB685B68002B02D07B8B012B6BD1E3
:10310000FB681A6BFB681B680C3312781A70FB683B
:103110001B6B5A1CFB681A63FB68DB8E9BB2013B7E
:103120009AB2FB68DA8657E0FB681B689B6803F07D
:103130000203022B1CD1FB68DB8E9BB2002B17D045
:10314000FB6A012B14D1FB681A6BFB681B680C33FC
:1031500012781A70FB681B6B5A1CFB681A63FB68B9
:10316000DB8E9BB2013B9AB2FB68DA860023FB62DE
:10317000FB681B689B6803F00103012B19D1FB68F6
:10318000DB8F9BB2002B14D0FB681B68DA68FB68EE
:103190009B6BD2B21A70FB689B6B5A1CFB689A63DC
:1031A000FB68DB8F9BB2013B9AB2FB68DA87012395
:1031B000FB62FEF76FFF02467B6AD31ABA6B9A4234
:1031C00003D8BB6BB3F1FF3F02D1BB6B002B03D124
:1031D000032387F82B3029E0FB68DB8E9BB2002BA2
:1031E000A2D1FB68DB8F9BB2002B9DD17A6AB96BB1
:1031F000F86800F0B1F80346002B06D0012387F8E9
:103200002B30FB6820225A6510E0FB689B68002B7E
:103210000BD100237B61FB681B68DB687B61FB686B
:103220001B689B687B617B6900E000BFFB68012233
:1032300083F85120FB68002283F8502097F82B3048
:1032400018463037BD4680BD80B588B000AFF86005
:10325000B9603B601346FB71FEF71CFF0246BB6A78
:103260009B1A3A681344FB61FEF714FFB861394BAF
:103270001B685B011B0DFA6902FB03F37B6154E0E1
:103280003B68B3F1FF3F50D0FEF704FF0246BB6935
:10329000D31AFA699A4202D9FB69002B3DD1FB6827
:1032A0001B685A68FB681B6822F0E0025A60FB68E2
:1032B0005B68B3F5827F11D1FB689B68B3F5004F63
:1032C00004D0FB689B68B3F5806F07D1FB681B686F
:1032D0001A68FB681B6822F040021A60FB689B6A50
:1032E000B3F5005F0FD1FB681B681A68FB681B68A9
:1032F00022F400521A60FB681B681A68FB681B689E
:1033000042F400521A60FB68012283F85120FB68E6
:10331000002283F85020032317E07B69002B01D1A2
:103320000023FB617B69013B7B61FB681B689A683A
:10333000BB681340BA689A420CBF01230023DBB27A
:103340001A46FB799A429BD1002318462037BD4686
:1033500080BD00BF0000002080B586B002AFF860DD
:10336000B9607A607B680093BB6800228021F868AE
:10337000FFF76AFF0346002B07D0FB685B6D43F045
:103380002002FB685A65032300E00023184610372B
:10339000BD4680BD80B582B000AF78607B68002BF1
:1033A00001D1012341E07B6893F83D30DBB2002B73
:1033B00006D17B68002283F83C207868FEF790FDF8
:1033C0007B68022283F83D207B681A687B6804339F
:1033D0001946104600F070FA7B68012283F84620F7
:1033E0007B68012283F83E207B68012283F83F201E
:1033F0007B68012283F840207B68012283F841200A
:103400007B68012283F842207B68012283F84320F5
:103410007B68012283F844207B68012283F84520E1
:103420007B68012283F83D20002318460837BD46FB
:1034300080BD000080B485B000AF78607B6893F8F1
:103440003D30DBB2012B01D001233AE07B68022240
:1034500083F83D207B681B68DA687B681B6842F054
:103460000102DA607B681B68184A93420ED07B68C1
:103470001B68B3F1804F09D07B681B68144A9342E4
:1034800004D07B681B68134A934211D17B681B6888
:103490009B6803F00703FB60FB68062B10D07B687A
:1034A0001B681A687B681B6842F001021A6007E01B
:1034B0007B681B681A687B681B6842F001021A600F
:1034C000002318461437BD4680BC7047002C0140CD
:1034D000000400400008004080B582B000AF786072
:1034E0007B681B681B6903F00203022B22D17B68F7
:1034F0001B68DB6803F00203022B1BD17B681B688F
:103500006FF002021A617B6801221A777B681B68E0
:103510009B6903F00303002B03D0786800F0B1F936
:1035200005E0786800F0A4F9786800F0B3F97B68EA
:1035300000221A777B681B681B6903F00403042BC5
:1035400022D17B681B68DB6803F00403042B1BD1CA
:103550007B681B686FF004021A617B6802221A778D
:103560007B681B689B6903F44073002B03D0786869
:1035700000F087F905E0786800F07AF9786800F0E3
:1035800089F97B6800221A777B681B681B6903F046
:103590000803082B22D17B681B68DB6803F0080353
:1035A000082B1BD17B681B686FF008021A617B68CF
:1035B00004221A777B681B68DB6903F00303002B86
:1035C00003D0786800F05DF905E0786800F050F904
:1035D000786800F05FF97B6800221A777B681B68C7
:1035E0001B6903F01003102B22D17B681B68DB687A
:1035F00003F01003102B1BD17B681B686FF01002C7
:103600001A617B6808221A777B681B68DB6903F400
:103610004073002B03D0786800F033F905E0786838
:1036200000F026F9786800F035F97B6800221A77F7
:103630007B681B681B6903F00103012B0ED17B68BB
:103640001B68DB6803F00103012B07D17B681B6853
:103650006FF001021A617868FEF738F97B681B6821
:103660001B6903F08003802B0ED17B681B68DB682D
:1036700003F08003802B07D17B681B686FF080020A
:103680001A61786800F077FA7B681B681B6903F0A1
:103690004003402B0ED17B681B68DB6803F04003BE
:1036A000402B07D17B681B686FF040021A61786875
:1036B00000F0F9F87B681B681B6903F02003202BDE
:1036C0000ED17B681B68DB6803F02003202B07D139
:1036D0007B681B686FF020021A61786800F042FA7C
:1036E00000BF0837BD4680BD80B584B000AF7860AC
:1036F00039607B6893F83C30012B01D10223B3E0A1
:103700007B68012283F83C207B68022283F83D20FD
:103710007B681B689B68FB60FB6823F07703FB609A
:10372000FB6823F47F43FB607B681B68FA689A6040
:103730003B681B68B3F5005F3ED0B3F5005F00F255
:103740008780B3F5805F00F08580B3F5805F7FD818
:10375000702B1AD0702B7BD8602B50D0602B77D871
:10376000502B3CD0502B73D8402B58D0402B6FD8C7
:10377000302B64D0302B6BD8202B60D0202B67D817
:10378000002B5CD0102B5AD062E07B6818683B6835
:1037900099683B685A683B68DB6800F066F97B68AB
:1037A0001B689B68FB60FB6843F07703FB607B68EA
:1037B0001B68FA689A604EE07B6818683B689968F5
:1037C0003B685A683B68DB6800F04FF97B681B6810
:1037D0009A687B681B6842F480429A603BE07B6891
:1037E00018683B6859683B68DB681A4600F0C6F801
:1037F0007B681B685021184600F01DF92BE07B68A0
:1038000018683B6859683B68DB681A4600F0E4F8C2
:103810007B681B686021184600F00DF91BE07B688F
:1038200018683B6859683B68DB681A4600F0A6F8E0
:103830007B681B684021184600F0FDF80BE07B68B0
:103840001A683B681B681946104600F0F4F802E05D
:1038500000BF00E000BF7B68012283F83D207B6849
:10386000002283F83C20002318461037BD4680BD57
:1038700080B483B000AF786000BF0C37BD4680BC19
:10388000704780B483B000AF786000BF0C37BD468E
:1038900080BC704780B483B000AF786000BF0C3745
:1038A000BD4680BC704780B483B000AF786000BF75
:1038B0000C37BD4680BC704780B485B000AF7860DF
:1038C00039607B681B68FB607B68294A93420BD098
:1038D0007B68B3F1804F07D07B68264A934203D0C0
:1038E0007B68254A934208D1FB6823F07003FB6094
:1038F0003B685B68FA681343FB607B681C4A934231
:103900000BD07B68B3F1804F07D07B68194A934294
:1039100003D07B68184A934208D1FB6823F44073B4
:10392000FB603B68DB68FA681343FB60FB6823F0CD
:1039300080023B685B691343FB607B68FA681A602E
:103940003B689A687B68DA623B681A687B689A62AF
:103950007B68074A934203D13B681A697B681A6304
:103960007B6801225A6100BF1437BD4680BC704796
:10397000002C0140000400400008004080B487B0E3
:1039800000AFF860B9607A60FB681B6A7B61FB6816
:103990001B6A23F00102FB681A62FB689B693B61AA
:1039A0003B6923F0F0033B617B681B013A691343D9
:1039B0003B617B6923F00A037B617A69BB6813432F
:1039C0007B61FB683A699A61FB687A691A6200BF99
:1039D0001C37BD4680BC704780B487B000AFF8602C
:1039E000B9607A60FB681B6A23F01002FB681A62F8
:1039F000FB689B697B61FB681B6A3B617B6923F405
:103A000070437B617B681B037A6913437B613B696D
:103A100023F0A0033B61BB681B013A6913433B6180
:103A2000FB687A699A61FB683A691A6200BF1C37C1
:103A3000BD4680BC704780B485B000AF7860396007
:103A40007B689B68FB60FB6823F07003FB603A684F
:103A5000FB68134343F00703FB607B68FA689A60D6
:103A600000BF1437BD4680BC704780B487B000AF3C
:103A7000F860B9607A603B60FB689B687B617B693A
:103A800023F47F437B613B681A027B681A43BB685F
:103A900013437A6913437B61FB687A699A6000BFBC
:103AA0001C37BD4680BC704780B485B000AF7860DD
:103AB00039607B6893F83C30012B01D1022346E04A
:103AC0007B68012283F83C207B68022283F83D203A
:103AD0007B681B685B68FB607B681B689B68BB60DE
:103AE000FB6823F07003FB603B681B68FA681343B4
:103AF000FB607B681B68FA685A607B681B68164A23
:103B000093420ED07B681B68B3F1804F09D07B686D
:103B10001B68124A934204D07B681B68104A934288
:103B20000CD1BB6823F08003BB603B685B68BA685C
:103B30001343BB607B681B68BA689A607B6801228C
:103B400083F83D207B68002283F83C200023184640
:103B50001437BD4680BC7047002C01400004004073
:103B60000008004080B483B000AF786000BF0C371D
:103B7000BD4680BC704780B483B000AF786000BFA2
:103B80000C37BD4680BC7047014B1868704700BFBA
:103B90000C00002070B500260C4D0D4C641BA410C9
:103BA000A64209D100F006FF00260A4D0A4C641B0C
:103BB000A410A64205D170BD55F8043B98470136C4
:103BC000EEE755F8043B98470136F2E7204A000833
:103BD000204A0008204A0008244A000803460244FC
:103BE000934200D1704703F8011BF9E72DE9F84330
:103BF00014461D468046894600F062F82246064675
:103C00000F462B4620462946FCF7F8FEC8BB00228B
:103C1000002340464946FCF7BFFEB8B1002200230E
:103C200020462946FCF7B8FE002841D12046294607
:103C300000F03BFE28B30022002320462946FCF773
:103C4000B5FEF0B1FFF7A0FF222319E03046394658
:103C500000F02BFEC8B94046494600F026FEA0B150
:103C60002046294600F021FE78B132463B463046D8
:103C70003946FCF7C3FE0028E4D0FFF785FF212377
:103C8000036030463946BDE8F88300220023304601
:103C90003946FCF781FE0028F3D04046494600F043
:103CA00004FE0028EDD02046294600F0FEFDC8E7BE
:103CB0000026014FE5E700BF0000F03F00000000D4
:103CC0002DE9F04F93B0CDE90223DDE9022727F07B
:103CD0000046894656EA0201804611D1031889F44C
:103CE000002252419942824B934180F0B984DDE930
:103CF000022340464946FCF731FA83468C466FE082
:103D00007C4B29F000449C424D46824606DC01D1A2
:103D10000028ECD19E4201DC0FD172B105F1404583
:103D200005F5801555EA0A05E1D1DDE90232DB1817
:103D300082F4002252419D42D5E7002D39DA6E4BC4
:103D40009E4252DCA3F154739E4240F39C8433158F
:103D5000A3F2FF33142B0FDDC3F1340322FA03F176
:103D600001FA03F3934240F08E8401F00101C1F1A6
:103D70000203009382B15DE0002A59D1C3F114031C
:103D800046FA03F101FA03F3B34240F0798401F0FB
:103D90000101C1F102030093584B9E4232D1002F22
:103DA00080F26A8442464B4600205449FCF7B6FC38
:103DB000A3E700230093002A3CD14E4B9E42EBD157
:103DC00004F1404303F5801353EA0A0300F04884EA
:103DD0004B4B9C420BDD002FC0F24884DDE902BC56
:103DE0005846614613B0BDE8F08F0223E2E7002F8A
:103DF0004FF0000B4FF0000CF2DADDE902B303F1F3
:103E0000004CEDE7B7F1804F06D142464B464046A5
:103E10004946FCF759FB70E73A4B9F420AD1002D07
:103E200008DB4046494613B0BDE8F04F00F05EBCE9
:103E3000002300934046494600F034FD83468C46FB
:103E4000BAF1000F28D124B12C4B25F040429A4200
:103E500022D1002F07DA5A46634600202749FCF793
:103E60005DFC83468C46002DBADA009B04F1404489
:103E700004F58014234308D15A46634658466146E8
:103E8000FCF76AF902460B4690E7009B012BA7D18D
:103E90000CF100439C46A3E7EB0F013B0C930C9AFB
:103EA000009B134304D142464B4640464946E7E750
:103EB000154B9E4240F3F68003F104739E42104B73
:103EC00009DD9C420CDC002F0CDA002013B0BDE8A9
:103ED000F04F00F0E2BC9C42F5DB084B9C4215DD44
:103EE000002FF2DC002013B0BDE8F04F00F0D0BC92
:103EF0000000F0FF0000F07FFFFF3F430000F03FB5
:103F0000FFFFEF3F0000E03F0000E041614600227C
:103F100058465F4BFCF720F955A3D3E9002304462C
:103F20000D46FCF7D1FA54A3D3E9002306460F4609
:103F300020462946FCF7C8FA002282468B462046D6
:103F40002946544BFCF7C0FA02460B464CA1D1E976
:103F50000001FCF701F922462B46FCF7B5FA0246B0
:103F60000B4600204C49FCF7F7F822462B468046CA
:103F7000894620462946FCF7A7FA02460B464046EA
:103F80004946FCF7A1FA40A3D3E90023FCF79CFAC9
:103F900002460B4650465946FCF7DEF84FF0000A41
:103FA00002460B4604460D4630463946FCF7D6F825
:103FB00032463B4650468B46FCF7CEF802460B464F
:103FC00020462946FCF7C8F8DDE90267009B0C9AF9
:103FD000013B13434FF000064FF000020CBF2F4B84
:103FE0002B4B04460D46DDE90201CDE900233246A4
:103FF0003B46FCF7B1F852465B46FCF765FADDE953
:1040000002238046894620462946FCF75DFA02468F
:104010000B4640464946FCF7A1F832463B468046EF
:10402000894650465946FCF74FFA04460D460B4662
:10403000024649464046CDE90245FCF78FF8184B49
:10404000824699420F460E4640F3E58201F13F4316
:1040500003F5E003034300F0DF81DDE90001002206
:104060000023FCF7A3FC003818BF01202EE700BF97
:10407000000000604715F73F44DF5DF80BAE543E8B
:10408000555555555555D53FFE822B654715F73F7C
:104090000000F03F0000D03F0000E03F0000F0BF14
:1040A000FFFF8F40D24B00222B4043B95846614658
:1040B000D04BFCF709FA6FF0340283460C46231507
:1040C000A3F2FF3313440B93CB4BC4F3130444F01C
:1040D0007F559C4245F4401508DDC84B9C4240F397
:1040E00099810B9BA5F5801501330B930026F300F6
:1040F0000D93C34B584603EBC603D3E9003429465E
:104100001A46CDE908342346FCF726F8DA462B4652
:104110005246CDE90E01DDE90801FCF71FF8024621
:104120000B460020B749FCF7F9FA02460B46CDE9E9
:104130001001DDE90E01FCF7C7F9CDE90601DDE963
:104140000634CDE9043400230022AB466D1045F05F
:104150000055049305F50025DDE9048905EB864348
:104160004046494614461D46FCF7AEF902460B464A
:10417000DDE90E01FBF7F0FFDDE9082306460F46F7
:1041800020462946FBF7E8FF02460B4650465946B3
:10419000FBF7E2FF42464B46FCF796F902460B4618
:1041A00030463946FBF7D8FFDDE91023FCF78CF9E0
:1041B000DDE90623CDE9080110461946FCF784F92C
:1041C00079A3D3E9002304460D46FCF77DF978A3D3
:1041D000D3E90023FBF7C2FF22462B46FCF774F914
:1041E00075A3D3E90023FBF7B9FF22462B46FCF762
:1041F0006BF973A3D3E90023FBF7B0FF22462B46EC
:10420000FCF762F970A3D3E90023FBF7A7FF22466E
:104210002B46FCF759F96EA3D3E90023FBF79EFF69
:10422000224606460F462B4620462946FCF74CF907
:1042300002460B4630463946FCF746F904460D4621
:10424000DDE9060142464B46FBF788FFDDE908231E
:10425000FCF73AF922462B46FBF780FF424606461A
:104260000F464B4640464946FCF72EF90022664B66
:1042700082468B46FBF772FF32463B46FBF76EFFEA
:1042800000240D4622460B4640464946FCF71CF9E1
:10429000002280468946204629465B4BFBF75CFF9F
:1042A00052465B46FBF758FF02460B4630463946FE
:1042B000FBF752FFDDE90623FCF706F92246064626
:1042C0000F46DDE908012B46FCF7FEF802460B46D7
:1042D00030463946FBF742FF002406460F460246A9
:1042E0000B4640464946FBF739FF3BA3D3E9002381
:1042F00020460D46FCF7E8F842464B46CDE906015C
:1043000020462946FBF728FF02460B463046394631
:10431000FBF722FF32A3D3E90023FCF7D5F832A341
:10432000D3E9002306460F4620462946FCF7CCF881
:1043300002460B4630463946FBF710FF0D9A334BC9
:104340004FF0000A1344D3E90023FBF707FF804630
:104350000B988946FCF74EF804460D460D9A2C4BF7
:104360001344D3E900674246DDE906014B46FBF7FB
:10437000F5FE32463B46FBF7F1FE22462B46FBF7A5
:10438000EDFE22462B4650468B46FBF7E5FE3246B5
:104390003B46FBF7E1FEDDE90623FBF7DDFE0246C7
:1043A0000B46404649460DE6EF4E454A287ECA3F39
:1043B00065DBC9934A86CD3F01411DA96074D13F99
:1043C0004D268F515555D53FFFAB6FDBB66DDB3FAB
:1043D000033333333333E33F000000E009C7EE3FDC
:1043E000FD033ADC09C7EE3FF5015B14E02F3EBE4A
:1043F0000000F07F000040438E98030079B60B0068
:10440000F04900080000F03F00000840104A000892
:10441000004A000801266AE69DA3D3E9002340462E
:104420004946FBF79BFE2246CDE904012B46504648
:104430003946FBF791FE02460B46DDE90401FCF725
:10444000D3FA00287FF409AEA34A26F00043934232
:1044500040F301814FF4801A00201B15A3F2FE33B4
:104460004AFA03F33344C3F30A529C4FA2F2FF32D9
:104470001741C3F3130A23EA0701C2F114024AF4F5
:10448000801A0B464AFA02FA002E024629462046B6
:10449000B8BFCAF1000AFBF75FFECDE90201DDE912
:1044A0000201002442464B46FBF758FE7AA3D3E9AB
:1044B000002320460D46FCF707F8DDE902230646F7
:1044C0000F4620462946FBF747FE02460B4640466C
:1044D0004946FBF741FE72A3D3E90023FBF7F4FF43
:1044E00071A3D3E900238046894620462946FBF77D
:1044F000EBFF02460B4640464946FBF72FFE0446BB
:104500000D4602460B4630463946FBF727FE32463B
:104510003B4680468946FBF71FFE02460B46204677
:104520002946FBF719FE424606460F464B464046D3
:104530004946FBF7C9FF5EA3D3E9002304460D46B5
:10454000FBF7C2FF5CA3D3E90023FBF705FE22467D
:104550002B46FBF7B9FF5AA3D3E90023FBF7FEFD77
:1045600022462B46FBF7B0FF57A3D3E90023FBF706
:10457000F3FD22462B46FBF7A7FF55A3D3E9002303
:10458000FBF7ECFD22462B46FBF79EFF02460B464F
:1045900040464946FBF7E0FD04460D4602460B4601
:1045A00040464946FBF790FF0022CDE902014FF05B
:1045B000804320462946FBF7CFFD02460B46DDE946
:1045C0000201FCF7ABF8324604460D463B46404636
:1045D0004946FBF779FF32463B46FBF7BFFD0246F3
:1045E0000B4620462946FBF7B7FD42464B46FBF7F4
:1045F000B3FD02460B4600203949FBF7ADFD01EB48
:104600000A54B4F5801F29DA524600F055F9DDE965
:104610000023FFF7FEBB334B21F000479F427FF79B
:1046200013AF314B0B44034309D0DDE900010022F5
:104630000023FCF7BBF9003818BF012053E42246E1
:104640002B46FBF789FD42464B46FCF7C3F9002891
:104650003FF4FAAEE9E74FF0000A20E72146D6E73B
:104660004FF0000BDFF878C0FFF7BABB4FF0000B3C
:104670004FF0000CFFF7B4BB40464946FFF73DBB87
:104680000092FFF789BB0023FFF773BBAFF30080F5
:10469000FE822B654715973C00000000432EE63F45
:1046A000EF39FAFE422EE63F396CA80C615C20BE61
:1046B000D0A4BE726937663EF16BD2C541BDBB3E28
:1046C0002CDE25AF6A56113F93BDBE166CC1663F06
:1046D0003E5555555555C53F0000E03FFFFF0F00C3
:1046E0000000F03FFFCB904000346F3FDFF858C12F
:1046F0002DE9F0413CEA010C06460D460C460A46FF
:10470000074603460FD102460B46FBF7DDFE024685
:104710000B4630462946FBF721FD06460D4630463E
:104720002946BDE8F08100290EDC21F0004C5CEA4E
:104730000707F4D041B102460B46FBF70DFD0246D8
:104740000B46FBF7EBFFE8E7211575D0CC074FF0E0
:104750000004C2F31302A1F2FF3742F480125EBFDD
:10476000D90F5B0001EB4202D90F01EB4202162583
:1047700020464FF400117F105B0046189642DEBFC2
:10478000921B701864185200013D02EBD3724FEA7D
:1047900051014FEA4303F0D129464FF0200E4FF06C
:1047A0000046824206EB050C02DC13D19C4511D871
:1047B000BCF1000F0CEB060543DA002D41DB00F1E4
:1047C0000108121A40469C4588BF02F1FF32A3EB54
:1047D0000C0331444FEAD37CBEF1010E0CEB4202D4
:1047E0004FEA43034FEA5606DBD1134306D0481C79
:1047F0000BBF71460131013421F0010163104908FA
:1048000003F17F53E20703F5001348BF41F0004175
:104810000E4603EB075582E7DA0A15385B05002AD6
:10482000FAD0D5020AD5C1F1200423FA04F44D1EB2
:104830008B402243411B89E70846F0E752000131D3
:10484000EFE78046BDE700BF0000F07F70B504468B
:104850000D461646FFF798F929460660204670BDBA
:1048600037B515461C4680B1104603F10041CDE92D
:104870000001DDE9002328462146FBF725FE222220
:1048800003B0BDE83040FFF7E1BF10461946EEE740
:1048900000224FF08053FFF7E3BF00224FF0E043C8
:1048A000FFF7DEBF21F00041704741F0004000F506
:1048B0008010C00F70470000F8B5C1F30A560446D7
:1048C0000D4617460B4696B921F00043034339D0F5
:1048D000334B0022FBF7F8FD324B04469F420D4656
:1048E0000FDA2BA3D3E90023FBF7EEFD06E040F23D
:1048F000FF7296420AD10246FBF730FC04460D4691
:1049000020E00B46C1F30A51A1F1360640F2FE72D7
:10491000B91991420EDD05F0004444F0FC4141F428
:104920005F1141F41051204841F03C011AA3D3E932
:104930000023D9E7002908DD23F0FF4323F4E00337
:1049400043EA015520462946F8BD11F1350F12DA28
:104950004CF250339F424FEAD5734FEAC374DCDC0C
:104960000BA3D3E9002344F0D27141F4B7310F48CF
:1049700041F01F01B8E723F0FF43363123F4E00391
:1049800043EA0155204629460022094BACE700BF07
:1049900059F3F8C21F6EA5019C7500883CE4377E70
:1049A00000005043B03CFFFF9C75008859F3F8C2EB
:1049B0000000903CF8B500BFF8BC08BC9E467047AC
:0C49C000F8B500BFF8BC08BC9E4670476C
:1049D00002030405060708090A0B0C0D0E0F101040
:1049E000000000000000000001020304060708099F
:1049F000000000000000F03F000000000000F83F51
:104A000000000000000000000000004003B8E23F8A
:104A1000000000000000000006D0CF43EBFD4C3E3C
:044A20003501000854
:044A24001101000874
:104A28000024F40010000000010000001000002025
:104A3800000000000000000000000000000000006E
:104A4800000000000000000000000000000000005E
:104A5800000000000000000000000000000000004E
:104A6800000000000000000000000000000000003E
:104A7800000000000000000000000000000000002E
:104A8800000000000000000000000000000000001E
:0400000508001F9937
:00000001FF
